{
  "_format": "hh-sol-artifact-1",
  "contractName": "Storage",
  "sourceName": "contracts/Greeter.sol",
  "abi": [
    {
      "inputs": [
        {
          "internalType": "uint256",
          "name": "pph",
          "type": "uint256"
        },
        {
          "internalType": "uint256",
          "name": "id",
          "type": "uint256"
        },
        {
          "internalType": "string",
          "name": "pic_url",
          "type": "string"
        }
      ],
      "name": "addBike",
      "outputs": [],
      "stateMutability": "nonpayable",
      "type": "function"
    },
    {
      "inputs": [],
      "name": "addUser",
      "outputs": [],
      "stateMutability": "nonpayable",
      "type": "function"
    },
    {
      "inputs": [
        {
          "internalType": "uint256",
          "name": "id",
          "type": "uint256"
        }
      ],
      "name": "onCheckIn",
      "outputs": [],
      "stateMutability": "payable",
      "type": "function"
    },
    {
      "inputs": [],
      "name": "onCheckout",
      "outputs": [
        {
          "internalType": "bool",
          "name": "completion",
          "type": "bool"
        }
      ],
      "stateMutability": "nonpayable",
      "type": "function"
    },
    {
      "inputs": [],
      "name": "onPayingDue",
      "outputs": [],
      "stateMutability": "payable",
      "type": "function"
    },
    {
      "inputs": [],
      "name": "returnDue",
      "outputs": [
        {
          "internalType": "uint256",
          "name": "due",
          "type": "uint256"
        }
      ],
      "stateMutability": "view",
      "type": "function"
    },
    {
      "inputs": [],
      "name": "returnUserData",
      "outputs": [
        {
          "components": [
            {
              "internalType": "address",
              "name": "userAddress",
              "type": "address"
            },
            {
              "internalType": "bool",
              "name": "rented_status",
              "type": "bool"
            },
            {
              "internalType": "uint256",
              "name": "rented_veh_id",
              "type": "uint256"
            },
            {
              "internalType": "uint256",
              "name": "rent_start",
              "type": "uint256"
            }
          ],
          "internalType": "struct Storage.User",
          "name": "data",
          "type": "tuple"
        }
      ],
      "stateMutability": "view",
      "type": "function"
    },
    {
      "inputs": [],
      "name": "returnUserReGStatus",
      "outputs": [
        {
          "internalType": "bool",
          "name": "status",
          "type": "bool"
        }
      ],
      "stateMutability": "view",
      "type": "function"
    },
    {
      "inputs": [],
      "name": "returnUserRentedHr",
      "outputs": [
        {
          "internalType": "uint256",
          "name": "hr",
          "type": "uint256"
        }
      ],
      "stateMutability": "view",
      "type": "function"
    },
    {
      "inputs": [
        {
          "internalType": "uint256",
          "name": "id",
          "type": "uint256"
        }
      ],
      "name": "returnVehiclesData",
      "outputs": [
        {
          "components": [
            {
              "internalType": "uint256",
              "name": "pph",
              "type": "uint256"
            },
            {
              "internalType": "uint256",
              "name": "id",
              "type": "uint256"
            },
            {
              "internalType": "address payable",
              "name": "ownerAddress",
              "type": "address"
            },
            {
              "internalType": "address",
              "name": "tenantAddress",
              "type": "address"
            },
            {
              "internalType": "string",
              "name": "pic_url",
              "type": "string"
            },
            {
              "internalType": "bool",
              "name": "available",
              "type": "bool"
            }
          ],
          "internalType": "struct Storage.Bike",
          "name": "data",
          "type": "tuple"
        }
      ],
      "stateMutability": "view",
      "type": "function"
    }
  ],
  "bytecode": "0x608060405234801561001057600080fd5b506119bd806100206000396000f3fe6080604052600436106100915760003560e01c80638e22e8e1116100595780638e22e8e11461014a578063b1c08e1214610175578063c117e6b31461019e578063d1faeb4d146101ba578063fd98154a146101e557610091565b80632b09be0014610096578063455c928c146100d35780635273ae9c146100ea5780635bfbe3881461011557806375e6a96d1461011f575b600080fd5b3480156100a257600080fd5b506100bd60048036038101906100b8919061123e565b610210565b6040516100ca9190611566565b60405180910390f35b3480156100df57600080fd5b506100e86103aa565b005b3480156100f657600080fd5b506100ff610582565b60405161010c91906115a3565b60405180910390f35b61011d61065a565b005b34801561012b57600080fd5b50610134610848565b60405161014191906115a3565b60405180910390f35b34801561015657600080fd5b5061015f6108b8565b60405161016c91906114cb565b60405180910390f35b34801561018157600080fd5b5061019c60048036038101906101979190611267565b61090c565b005b6101b860048036038101906101b3919061123e565b610a4b565b005b3480156101c657600080fd5b506101cf610d73565b6040516101dc9190611588565b60405180910390f35b3480156101f157600080fd5b506101fa610e4e565b60405161020791906114cb565b60405180910390f35b61021861107a565b600160008381526020019081526020016000206040518060c001604052908160008201548152602001600182015481526020016002820160009054906101000a900473ffffffffffffffffffffffffffffffffffffffff1673ffffffffffffffffffffffffffffffffffffffff1673ffffffffffffffffffffffffffffffffffffffff1681526020016003820160009054906101000a900473ffffffffffffffffffffffffffffffffffffffff1673ffffffffffffffffffffffffffffffffffffffff1673ffffffffffffffffffffffffffffffffffffffff1681526020016004820180546103069061179c565b80601f01602080910402602001604051908101604052809291908181526020018280546103329061179c565b801561037f5780601f106103545761010080835404028352916020019161037f565b820191906000526020600020905b81548152906001019060200180831161036257829003601f168201915b505050505081526020016005820160009054906101000a900460ff1615151515815250509050919050565b60001515600260003373ffffffffffffffffffffffffffffffffffffffff1673ffffffffffffffffffffffffffffffffffffffff16815260200190815260200160002060009054906101000a900460ff1615151461040757600080fd5b6001600260003373ffffffffffffffffffffffffffffffffffffffff1673ffffffffffffffffffffffffffffffffffffffff16815260200190815260200160002060006101000a81548160ff021916908315150217905550336000803373ffffffffffffffffffffffffffffffffffffffff1673ffffffffffffffffffffffffffffffffffffffff16815260200190815260200160002060000160006101000a81548173ffffffffffffffffffffffffffffffffffffffff021916908373ffffffffffffffffffffffffffffffffffffffff16021790555060008060003373ffffffffffffffffffffffffffffffffffffffff1673ffffffffffffffffffffffffffffffffffffffff16815260200190815260200160002060000160146101000a81548160ff02191690831515021790555060008060003373ffffffffffffffffffffffffffffffffffffffff1673ffffffffffffffffffffffffffffffffffffffff16815260200190815260200160002060020181905550565b6000806000803373ffffffffffffffffffffffffffffffffffffffff1673ffffffffffffffffffffffffffffffffffffffff16815260200190815260200160002060020154603c80426105d59190611641565b6105df9190611641565b6105e991906116cc565b9050600081600160008060003373ffffffffffffffffffffffffffffffffffffffff1673ffffffffffffffffffffffffffffffffffffffff168152602001908152602001600020600101548152602001908152602001600020600001546106509190611672565b9050809250505090565b60008060003373ffffffffffffffffffffffffffffffffffffffff1673ffffffffffffffffffffffffffffffffffffffff16815260200190815260200160002060020154603c80426106ac9190611641565b6106b69190611641565b6106c091906116cc565b9050600081600160008060003373ffffffffffffffffffffffffffffffffffffffff1673ffffffffffffffffffffffffffffffffffffffff168152602001908152602001600020600101548152602001908152602001600020600001546107279190611672565b9050600160008060003373ffffffffffffffffffffffffffffffffffffffff1673ffffffffffffffffffffffffffffffffffffffff16815260200190815260200160002060010154815260200190815260200160002060020160009054906101000a900473ffffffffffffffffffffffffffffffffffffffff1673ffffffffffffffffffffffffffffffffffffffff166108fc829081150290604051600060405180830381858888f193505050501580156107e6573d6000803e3d6000fd5b50603c80426107f59190611641565b6107ff9190611641565b6000803373ffffffffffffffffffffffffffffffffffffffff1673ffffffffffffffffffffffffffffffffffffffff168152602001908152602001600020600201819055505050565b6000806000803373ffffffffffffffffffffffffffffffffffffffff1673ffffffffffffffffffffffffffffffffffffffff16815260200190815260200160002060020154603c804261089b9190611641565b6108a59190611641565b6108af91906116cc565b90508091505090565b6000600260003373ffffffffffffffffffffffffffffffffffffffff1673ffffffffffffffffffffffffffffffffffffffff16815260200190815260200160002060009054906101000a900460ff16905090565b826001600084815260200190815260200160002060000181905550816001600084815260200190815260200160002060010181905550336001600084815260200190815260200160002060020160006101000a81548173ffffffffffffffffffffffffffffffffffffffff021916908373ffffffffffffffffffffffffffffffffffffffff16021790555060006001600084815260200190815260200160002060030160006101000a81548173ffffffffffffffffffffffffffffffffffffffff021916908373ffffffffffffffffffffffffffffffffffffffff16021790555080600160008481526020019081526020016000206004019080519060200190610a179291906110de565b50600180600084815260200190815260200160002060050160006101000a81548160ff021916908315150217905550505050565b3373ffffffffffffffffffffffffffffffffffffffff166001600083815260200190815260200160002060020160009054906101000a900473ffffffffffffffffffffffffffffffffffffffff1673ffffffffffffffffffffffffffffffffffffffff161415610af0576040517f08c379a0000000000000000000000000000000000000000000000000000000008152600401610ae790611546565b60405180910390fd5b600115156001600083815260200190815260200160002060050160009054906101000a900460ff16151514610b5a576040517f08c379a0000000000000000000000000000000000000000000000000000000008152600401610b51906114e6565b60405180910390fd5b600015156000803373ffffffffffffffffffffffffffffffffffffffff1673ffffffffffffffffffffffffffffffffffffffff16815260200190815260200160002060000160149054906101000a900460ff16151514610bef576040517f08c379a0000000000000000000000000000000000000000000000000000000008152600401610be690611506565b60405180910390fd5b336001600083815260200190815260200160002060030160006101000a81548173ffffffffffffffffffffffffffffffffffffffff021916908373ffffffffffffffffffffffffffffffffffffffff16021790555060006001600083815260200190815260200160002060050160006101000a81548160ff02191690831515021790555060016000803373ffffffffffffffffffffffffffffffffffffffff1673ffffffffffffffffffffffffffffffffffffffff16815260200190815260200160002060000160146101000a81548160ff021916908315150217905550806000803373ffffffffffffffffffffffffffffffffffffffff1673ffffffffffffffffffffffffffffffffffffffff16815260200190815260200160002060010181905550603c8042610d219190611641565b610d2b9190611641565b6000803373ffffffffffffffffffffffffffffffffffffffff1673ffffffffffffffffffffffffffffffffffffffff1681526020019081526020016000206002018190555050565b610d7b611164565b6000803373ffffffffffffffffffffffffffffffffffffffff1673ffffffffffffffffffffffffffffffffffffffff1681526020019081526020016000206040518060800160405290816000820160009054906101000a900473ffffffffffffffffffffffffffffffffffffffff1673ffffffffffffffffffffffffffffffffffffffff1673ffffffffffffffffffffffffffffffffffffffff1681526020016000820160149054906101000a900460ff1615151515815260200160018201548152602001600282015481525050905090565b6000806000803373ffffffffffffffffffffffffffffffffffffffff1673ffffffffffffffffffffffffffffffffffffffff16815260200190815260200160002060020154603c8042610ea19190611641565b610eab9190611641565b610eb591906116cc565b9050600081600160008060003373ffffffffffffffffffffffffffffffffffffffff1673ffffffffffffffffffffffffffffffffffffffff16815260200190815260200160002060010154815260200190815260200160002060000154610f1c9190611672565b905060008114610f61576040517f08c379a0000000000000000000000000000000000000000000000000000000008152600401610f5890611526565b60405180910390fd5b60018060008060003373ffffffffffffffffffffffffffffffffffffffff1673ffffffffffffffffffffffffffffffffffffffff16815260200190815260200160002060010154815260200190815260200160002060050160006101000a81548160ff02191690831515021790555060008060003373ffffffffffffffffffffffffffffffffffffffff1673ffffffffffffffffffffffffffffffffffffffff1681526020019081526020016000206001018190555060008060003373ffffffffffffffffffffffffffffffffffffffff1673ffffffffffffffffffffffffffffffffffffffff16815260200190815260200160002060000160146101000a81548160ff02191690831515021790555060019250505090565b6040518060c001604052806000815260200160008152602001600073ffffffffffffffffffffffffffffffffffffffff168152602001600073ffffffffffffffffffffffffffffffffffffffff168152602001606081526020016000151581525090565b8280546110ea9061179c565b90600052602060002090601f01602090048101928261110c5760008555611153565b82601f1061112557805160ff1916838001178555611153565b82800160010185558215611153579182015b82811115611152578251825591602001919060010190611137565b5b50905061116091906111a4565b5090565b6040518060800160405280600073ffffffffffffffffffffffffffffffffffffffff16815260200160001515815260200160008152602001600081525090565b5b808211156111bd5760008160009055506001016111a5565b5090565b60006111d46111cf846115e3565b6115be565b9050828152602081018484840111156111ec57600080fd5b6111f784828561175a565b509392505050565b600082601f83011261121057600080fd5b81356112208482602086016111c1565b91505092915050565b60008135905061123881611970565b92915050565b60006020828403121561125057600080fd5b600061125e84828501611229565b91505092915050565b60008060006060848603121561127c57600080fd5b600061128a86828701611229565b935050602061129b86828701611229565b925050604084013567ffffffffffffffff8111156112b857600080fd5b6112c4868287016111ff565b9150509250925092565b6112d781611712565b82525050565b6112e681611700565b82525050565b6112f581611724565b82525050565b61130481611724565b82525050565b600061131582611614565b61131f818561161f565b935061132f818560208601611769565b611338816118bb565b840191505092915050565b6000611350601683611630565b915061135b826118cc565b602082019050919050565b6000611373601483611630565b915061137e826118f5565b602082019050919050565b6000611396601b83611630565b91506113a18261191e565b602082019050919050565b60006113b9601e83611630565b91506113c482611947565b602082019050919050565b600060c0830160008301516113e760008601826114ad565b5060208301516113fa60208601826114ad565b50604083015161140d60408601826112ce565b50606083015161142060608601826112dd565b5060808301518482036080860152611438828261130a565b91505060a083015161144d60a08601826112ec565b508091505092915050565b60808201600082015161146e60008501826112dd565b50602082015161148160208501826112ec565b50604082015161149460408501826114ad565b5060608201516114a760608501826114ad565b50505050565b6114b681611750565b82525050565b6114c581611750565b82525050565b60006020820190506114e060008301846112fb565b92915050565b600060208201905081810360008301526114ff81611343565b9050919050565b6000602082019050818103600083015261151f81611366565b9050919050565b6000602082019050818103600083015261153f81611389565b9050919050565b6000602082019050818103600083015261155f816113ac565b9050919050565b6000602082019050818103600083015261158081846113cf565b905092915050565b600060808201905061159d6000830184611458565b92915050565b60006020820190506115b860008301846114bc565b92915050565b60006115c86115d9565b90506115d482826117ce565b919050565b6000604051905090565b600067ffffffffffffffff8211156115fe576115fd61188c565b5b611607826118bb565b9050602081019050919050565b600081519050919050565b600082825260208201905092915050565b600082825260208201905092915050565b600061164c82611750565b915061165783611750565b9250826116675761166661182e565b5b828204905092915050565b600061167d82611750565b915061168883611750565b9250817fffffffffffffffffffffffffffffffffffffffffffffffffffffffffffffffff04831182151516156116c1576116c06117ff565b5b828202905092915050565b60006116d782611750565b91506116e283611750565b9250828210156116f5576116f46117ff565b5b828203905092915050565b600061170b82611730565b9050919050565b600061171d82611730565b9050919050565b60008115159050919050565b600073ffffffffffffffffffffffffffffffffffffffff82169050919050565b6000819050919050565b82818337600083830152505050565b60005b8381101561178757808201518184015260208101905061176c565b83811115611796576000848401525b50505050565b600060028204905060018216806117b457607f821691505b602082108114156117c8576117c761185d565b5b50919050565b6117d7826118bb565b810181811067ffffffffffffffff821117156117f6576117f561188c565b5b80604052505050565b7f4e487b7100000000000000000000000000000000000000000000000000000000600052601160045260246000fd5b7f4e487b7100000000000000000000000000000000000000000000000000000000600052601260045260246000fd5b7f4e487b7100000000000000000000000000000000000000000000000000000000600052602260045260246000fd5b7f4e487b7100000000000000000000000000000000000000000000000000000000600052604160045260246000fd5b6000601f19601f8301169050919050565b7f42696b65206973206e6f7420617661696c61626c652e00000000000000000000600082015250565b7f436865636b696e206e6f7420706f737369626c65000000000000000000000000600082015250565b7f50617920647565206265666f72652070726f6365656564696e672e0000000000600082015250565b7f596f752063616e6e6f742072656e74207572206f776e2076656869636c650000600082015250565b61197981611750565b811461198457600080fd5b5056fea264697066735822122084defa7eb7eedfe2a6a22a6c03f56c59174195bde72cda9cce7e1ad09c69528564736f6c63430008040033",
  "linkReferences": {},
  "deployedLinkReferences": {}
}